:02000002B0004C
:1040000000400B00609D0B00000006000D00050243
:0840100004010410000000008F
:04401800B4960B004F
:1040200009480A49884208B505D0094A824202D0A7
:10403000121A05F067FA0748074A0021121A05F01C
:104040006FFA014808BD00BFA4E40320B09C0B0038
:104050002CE5032030E50320F1E7032070B5074E7F
:10406000074C02F087FBA41BA4080025AC4200D13A
:1040700070BD56F8043B98470135F7E7509C0B009C
:10408000749C0B0000F00CBB08B500F0AFFEBDE85F
:10409000084002F027BB01F08BBD01F089BD01F0A3
:1040A0008FBD0078B0FA80F040097047012303709B
:1040B000704710B44468C068A4465DF8044B60477C
:1040C00010B40468C068A4465DF8044B604713B59B
:1040D00001230C460DF107020F21FFF7EAFF9DF8BF
:1040E0000730237002B010BD37B502230D4601AA78
:1040F00011210446FFF7DDFFB8B99DF804309DF8A3
:1041000005208DF8003095B1012D13BF9DF80030CA
:10411000DBB243F0800343F004038DF800306A46BD
:10412000012311212046FFF7CBFF03B030BD9DF8DE
:10413000003042F0010243F008038DF800308DF8A2
:1041400004308DF80520022301AAEAE730B585B0D6
:104150000C46012302AA11210546FFF7AAFF98B9D0
:10416000012301AA24212846FFF7A3FF60B90123F8
:1041700003AA27212846FFF79CFF28B901236A4696
:104180000B212846FFF795FF9DF804309DF8082085
:10419000C3F3C011C2F3800343EA41039DF80C103E
:1041A000C1F3000543EA8503C2F30002C1F34005F1
:1041B00043EAC503D243C1F3001543EA0513C1F333
:1041C0004011920143EA411302F0400213439DF86B
:1041D0000020C2F34012D24343EAC213237005B059
:1041E00030BD13B54B7804469BB9012301AA1121B8
:1041F000FFF75FFF9DF8043043F001038DF80430B2
:1042000028B9012301AA11212046FFF759FF02B066
:1042100010BD0020FBE7000037B505230D4614460E
:1042200028216A46FFF745FF9DF801309DF80220DE
:1042300003EB02229DF8003003EB02231B026360B4
:104240002A7807EE903A22B1012A1AD0002323607F
:1042500003E0FAEEC67AC4ED007A9DF804209DF8DA
:104260000330DFED096A03EB02231BB207EE903A3D
:10427000F8EEE77AA38187EEA67A84ED027A03B09E
:1042800030BDFAEEE67AE6E70000C84270B50C1ED3
:10429000064615460BDA0A2A09D12D2101F0F6FF50
:1042A0006142EAB23046BDE8704002F00CB82146E7
:1042B000F7E70EB400B58CB00DAA4FF0200C52F801
:1042C000041B0392CDE900120023016804AA1E20FA
:1042D000CDE904C301F074FB0CB05DF804EB03B04E
:1042E000704700000000000008B50D4B188803F06F
:1042F0007DF807EE900AF8EEE77A17EE900A04F0E0
:1043000061FB05A3D3E9002304F0B4FB04F0AAFE8B
:10431000044B186008BD00BF7A37161406655A3F73
:10432000A4E4032048E5032010B5044C204601F026
:10433000A9F9034BA2681A6010BD00BF5CE5032019
:1043400090E5032070B502F0BBFD2349234E244CB9
:1043500001F0AFFF02F0B4FD1F4901F0AAFF0A25EA
:10436000304600F0D0FE07EE900A94ED007AF8EEA9
:10437000E77A642077EE877AC4ED007A02F062F97A
:10438000013DEDD194ED007A164BF2EE046AC7EED2
:10439000267A4FF07E52C3ED007A00232360124B41
:1043A0001A60124B1A60124A92ED007A114A37EEE7
:1043B000C77AF4EEE67AF1EE10FA82ED007A44BFA5
:1043C0004FF07C521A6093ED007A0B4B67EE277A20
:1043D000C3ED007A70BD00BF7F9B0B0020E6032079
:1043E00030E5032044E50320ACE50320B0E40320DE
:1043F00058E50320A4E50320A8E503200000000001
:1044000010B51D4C1D4BD4ED007AFDEEE77AC3EDDF
:10441000007A17EE900A04F0C3FA11A3D3E900233F
:1044200004F052FC9FED101B41EC100B03F0E0F880
:10443000134BD4ED007A93ED007A124B77EEC77AE6
:10444000C3ED007A17EE900A04F0BCFA08A3D3E992
:10445000002304F039FC04F005FE0B4B186010BD7E
:104460000000000000AA8F403CDD79E2395BC83FC4
:1044700066666666668658405CE503203CE5032078
:1044800038E5032034E503204CE50320000000005C
:1044900073B5554E554C02F013FD554901F0F2FE2F
:1044A00002F00EFD96ED000A022101F0F3FF02F08A
:1044B00007FD214601F0E6FE02F002FD4D4901F044
:1044C000E1FE02F0FDFC4C4B93ED007A4B4BD3ED3B
:1044D000007A77EE677A054617EE900A04F072FAD2
:1044E0003FA3D3E9002304F0EFFB41EC100B0221C2
:1044F000284601F0DEFF424D02F0E2FC214601F0C9
:10450000C1FE02F0DDFC3F4901F0BCFE02F0D8FC28
:104510000A222968FFF7BAFE02F0D2FC214601F018
:10452000B1FE02F0CDFC384901F0ACFE02F0C8FC4F
:10453000364B022193ED000A01F0ACFF02F0C0FC03
:10454000214601F09FFE02F0BBFC314901F09AFECA
:1045500002F0B6FC0A22C821FFF798FE02F0B0FC78
:10456000214601F08FFE02F0ABFC2A4901F08AFEE1
:1045700002F0A6FC284B022193ED000A01F08AFF0D
:1045800002F09EFC254901F07DFE02F099FC244BCF
:10459000022193ED000A01F07DFF95ED000AD6EDB2
:1045A000007A204BB8EEC00A30EE270ADFED1E7A03
:1045B00030EE270AD3ED007A30EE270A8DED010A9E
:1045C00002F07EFC194901F05DFE02F079FC9DEDE0
:1045D000010A022102B0BDE8704001F078BF00BFBF
:1045E000666666666686584090E50320CF960B00A7
:1045F000C8960B00D1960B005CE5032038E503203C
:104600003CE50320D9960B00E4960B0044E503201B
:10461000EB960B0005970B0058E503200C970B0059
:1046200048E503204CE503200000484318970B00A1
:1046300010B51849184890B02024FFF73AFE2246DA
:104640000021684604F06CFF224600210DEB0400B7
:104650008DF8054004F064FF00210DEB04008DF897
:10466000254001F0F9F94FF47A63ADF806300B4BB1
:10467000029341F27003ADF80C30009B002143F42B
:1046800080636846009301F0E7F9003818BF012005
:1046900010B010BD23970B0084E60320840384032D
:1046A00037B5022001F09CF901F052FA01F092FFB7
:1046B0004FF47A7001F0C6FF854B1A68854B1A607B
:1046C00001F04EFA10B1002001F05AFAB9EE0C0ACE
:1046D00001F024FF02F0E2FE4FF4165102F0B8FCA4
:1046E0007D4C02F0DBFE4FF47A7101F0FFFE02F028
:1046F000E7FB4FF4165102F0D1FB2088012102F0B4
:104700004BFE2088002102F058FE744B01211888CE
:1047100002F042FE642001F095FF714800F05EFC5B
:104720006F4800F082FCFFF783FF8021042002F035
:1047300074FE02F0C5FB02F0B8FB18B90A2001F0C4
:1047400081FFF6E702F0BCFB664901F0B2FD02F022
:10475000FFFE0146644800F0FCFC20B902F0B0FB0B
:10476000624901F0A6FD02F0ABFB614901F0A1FD39
:104770005D48012100F0E1FC5B48032100F0D4FC1E
:104780000121594800F0D9FC02F09AFB594901F087
:1047900080FD554800F0D4FC032808D8DFE800F07D
:1047A000021A221E02F08CFB534901F082FD02F036
:1047B00087FB524901F06DFD4B4800F0B8FC0C2816
:1047C00019D8DFE800F075797D811818181871186C
:1047D0001818130002F074FB4949E6E702F070FB79
:1047E0004849E2E702F06CFB4749DEE702F068FB6C
:1047F000464901F05EFD00213B48454C00F08EFC2F
:1048000002F0A6FE02F086FC4FF4FA6001F01AFFF7
:10481000FFF798FD3F4B64201B68236001F012FFF7
:1048200002F04EFB3C4901F02DFD02F049FB94EDF6
:10483000000A022101F04BFE384B002264201A606E
:1048400001F000FF364B1978019102F081FE0199C9
:104850000246344800F0FCFE40B102F031FB324920
:1048600001F027FD4FF47A7001F0ECFE2D4D2F4C36
:1048700002F026FB2E4901F01CFD284600F002FF45
:104880002B68236002F01CFB2A4901F0FBFC02F0BC
:1048900017FB94ED000A022101F019FE642003B019
:1048A000BDE8304001F0CEBE02F00AFB2249A0E78D
:1048B00002F006FB21499CE702F002FB204998E741
:1048C00002F0FEFA1F4994E702F0FAFA1E4990E757
:1048D000BCE4032088E60320B4E40320ACE4032016
:1048E00064E603203D970B0020E6032073970B003E
:1048F0009E970B00AB970B00B2970B00BE970B0077
:10490000B4970B00B6970B00BA970B00D6970B0025
:1049100058E5032044E50320EC970B0030E5032025
:10492000A8E403205CE5032008980B0038E5032089
:1049300045980B005F980B00D9970B00DC970B0094
:10494000E0970B00E4970B00E8970B0010B5BEB0A2
:1049500002F0B6FA764901F0ACFC02F0B1FA754902
:1049600001F0A7FC02F0ACFA734901F0A2FC02F0DE
:10497000A7FA044601F04BFE0246C3173AA801F01D
:10498000EDFD3A99204601F094FC3AA801F0F6FAC0
:104990006A4906A801F03DFB06A90AA801F079FBC7
:1049A00067490AA801F0F2FB01460EA801F071FB6D
:1049B0000EA916A801F06DFB624912A801F029FBAF
:1049C00012A916A801F0D6FB5F4901F0D3FB5F499D
:1049D00001F0DCFB5E4904461AA801F01AFB1AA993
:1049E000204601F0C7FB574904461EA801F011FB01
:1049F0001EA9204601F0BEFB564901F0BBFB5349FE
:104A0000044622A801F005FB22A9204601F0B2FBD2
:104A10005149044626A801F0FCFA26A9204601F0D7
:104A2000A9FB484904462AA801F0F3FA2AA920461E
:104A300001F0A0FB494901F09DFB444904462EA822
:104A400001F0E7FA2EA9204601F094FB4449044600
:104A500032A801F0DEFA32A9204601F08BFB394979
:104A6000044636A801F0D5FA36A9204601F082FBAB
:104A70003C4901F07FFB3C4904463AA801F0C9FAE1
:104A80003AA9204601F076FB014602A801F001FB9D
:104A90003AA801F073FA36A801F070FA32A801F0D2
:104AA0006DFA2EA801F06AFA2AA801F067FA26A882
:104AB00001F064FA22A801F061FA1EA801F05EFA82
:104AC0001AA801F05BFA12A801F058FA16A801F032
:104AD00055FA0EA801F052FA0AA801F04FFA06A8FA
:104AE00001F04CFA214B029A1B788DF800302049D6
:104AF0003C233AA801F09CFF3B9C7CB16368013BDE
:104B000063605BB9236820469B689847A368013BB4
:104B1000A3601BB923682046DB689847012001F099
:104B200091FD00F079F902A801F028FA3EB010BD1D
:104B30007E980B007F9B0B009A980B00AD980B00A2
:104B4000AF980B00E2960B00C0E50320CF960B0058
:104B5000B6980B00D0E50320BD980B00E0E50320DC
:104B6000C4980B00F0E50320CB980B0040E5032030
:104B7000CD980B00000000002DE9F04F87B0002118
:104B8000684601F075FD7C487C4DDFF850B2DFF8D7
:104B900050A27B4EDFF84C92DFF84C82794F00F048
:104BA00081FA794B744883ED000A00F08DFA10EE1B
:104BB000100A03F007FF6EA3D3E9002304F084F882
:104BC00004F050FA714B01211860288802F0F5FBBF
:104BD0006F4BFF21188802F020FC6E4B012193EDF2
:104BE000000A02A801F095FA6B4B02A9184601F0E1
:104BF0005BFA02A801F0C2F968490A22096802A812
:104C000001F074FA02A9584601F056FA02A801F020
:104C1000B5F9634A012192ED000A02A801F079FA80
:104C200002A9504601F040FA02A801F0A7F996ED5A
:104C3000000A022102A801F06CFA02A9484601F01C
:104C400033FA02A801F09AF9564A022192ED000ABD
:104C500002A801F05EFA02A9404601F025FA02A876
:104C600001F08CF90A224FF4967102A801F03EFA85
:104C700002A9384601F020FA02A801F07FF94A4A59
:104C80000024146002F01CF9484901F012FB02F004
:104C900017F9474901F00DFB02F012F9454901F0FF
:104CA000F1FA02F00DF9444A116801F002FB02F03A
:104CB00007F9424901F0E6FA02F002F9364B1968A9
:104CC00001F0F7FA02F0FCF83D4901F0DBFA02F0DE
:104CD000F7F8DBF8001001F0ECFA02F0F1F83949CE
:104CE00001F0D0FA02F0ECF8DAF8001001F0E1FA85
:104CF00002F0E6F8344901F0C5FA02F0E1F8D9F81B
:104D0000001001F0D6FA02F0DBF8304901F0BAFAEF
:104D100002F0D6F8D8F8001001F0CBFA02F0D0F883
:104D20002B4901F0AFFA02F0CBF8396801F0C1FA73
:104D300002F0C6F8274901F0A5FA02F0C1F896ED95
:104D4000000A022101F0C3FB012001F07BFC28884E
:104D5000214602F032FB204B1C60FFF7F7FD68464E
:104D600001F096FC07B0BDE8F08F00BFAFF3008004
:104D70007B14AE47E17A044064E60320B4E40320E8
:104D800048E5032010E603205CE603208CE50320C1
:104D9000ACE4032090E50320C0E503203CE50320BC
:104DA00044E503204CE5032060E603207F9B0B00D5
:104DB000D7980B00EF980B00B0E5032001990B008A
:104DC0000F990B00E5960B001F990B002F990B0014
:104DD00037990B0049990B0088E50320D0E50320A3
:104DE000E0E50320F0E5032000E6032008B5FFF727
:104DF0007BFAFFF799FAFFF703FBFFF7A3FAFFF738
:104E000047FB00F0ADFE30B101F0E4FB18B1BDE8A6
:104E10000840FFF7B1BE08BD30B5454B8BB01888D0
:104E2000002102F0CAFA4FF47A7001F00BFC414BFA
:104E3000414900251D6005AB0493012310228DF824
:104E400024300323ADF8163010460223CDE9065571
:104E50000895ADF814208DF8183002F0C1FB044617
:104E600000285FD01022294604F05AFB334B236000
:104E70000423A380089BA3604EF66023E36008949C
:104E80009DF82430B3B1049BDB68002B31D09A88A5
:104E90000E2A06D09B68F8E79B6853B39A880E2ABF
:104EA000FAD11A7B042AF7D1DA89012A02D042F01A
:104EB0000102DA8102F004F8214901F0FAF904A9AB
:104EC00001A800F03DFF019B2BB19A88012A02D175
:104ED0009B89022B01D0FFF74FFE019808B100F02B
:104EE0006FFE089808B384680C21FFF7D8F82046B5
:104EF000F8E71149142002F073FB044678B114223C
:104F0000002104F00DFB0D4B23600E23A380089BB2
:104F1000A360042323730123E3810894CAE78DF877
:104F20002400C7E78DF82400AAE70BB030BD00BF0E
:104F3000B4E4032088E50320489B0B001000030025
:104F40005E990B00184B1948012210B51A70184CC5
:104F500000F04EFB174800F0D5F82146164801F046
:104F600058F82146154801F054F82146144801F03C
:104F700050F82146134801F04CF82146124801F040
:104F800048F82146114801F044F82146104801F044
:104F900040F821460F4801F03CF8BDE810400E48AB
:104FA000002101F065BB00BF40E503205CE5032064
:104FB0007F9B0B0020E60320B0E50320C0E5032023
:104FC000D0E50320E0E50320F0E5032000E6032020
:104FD00010E6032094E5032050E5032008B502F015
:104FE000B7FA02F097F8012008BD38B515460C460F
:104FF00002F0AEFA362102F0C3F802F0A9FA036813
:1050000029469B68984702F0A3FA0368210A9B6827
:10501000984702F09DFA0368E1B29B68984702F056
:1050200097FABDE8384002F0B2B806224FF480414A
:10503000FFF7DBBF10B50C4602F08AFA362102F00A
:105040009FF802F085FA036821469B68984702F0B2
:105050007FFA002102F097F802F07AFA0222362154
:1050600002F087F840F2E93402F072FA03681B6933
:105070009847012806DC013CA4B21CB1012001F0D4
:10508000E1FAF1E702F064FA03685B6998470446C5
:1050900002F05EFA03685B699847C3B243EA0420F2
:1050A00080B210BD08B50221FFF7C4FFC0F30F1393
:1050B00000EE103ADFED037AB8EE400A80EE270AE0
:1050C00008BD00BF0000484408B504212DED028B47
:1050D000FFF7B0FFC0F30F23C0B208EE103A03F0A1
:1050E0005FFC074B002203F0C5FC03F0BBFFB8EEEA
:1050F000C88A07EE900A37EE880ABDEC028B08BD1D
:105100000000703F704708B5406800F055F980B264
:1051100008BDC06981F0010100F07DB9006A00F0AE
:105120007AB9406A00F077B9806A00F074B908B5BE
:10513000806A00F062F9C0B208BDC06A00F06BB9C5
:1051400008B5C06A00F059F9C0B208BD006B00F0A4
:1051500062B97FB504460C200391FEF79CFF05461B
:1051600018B1039A102100F070F9A563284600F0E9
:1051700085F90546002800F0D2801020FEF78BFF4D
:10518000064638B101230022CDE90023A16B02239A
:1051900000F0C8F826601020FEF77DFF064638B103
:1051A00000230122CDE90032A16B022300F0BAF8FE
:1051B000E6601020FEF76FFF064640B10023012293
:1051C000CDE900320223A16B1A4600F0ABF826614C
:1051D0001020FEF760FF064648B100234FF0010E95
:1051E000CDE9003EA16B0223032200F09BF866612B
:1051F0001020FEF750FF064648B100234FF0010C87
:10520000CDE9003CA16B0223042200F08BF866601C
:105210001020FEF740FF064640B100230121CDE9F2
:1052200000310522A16B022300F07CF8A66010205B
:10523000FEF731FF064640B100230122CDE90032DE
:10524000A16B0223062200F06DF8A6610820FEF78C
:1052500022FF064620B121680023012200F0C8F891
:10526000E6610820FEF717FF064620B101232168FA
:105270001A4600F0BDF826620820FEF70CFF06462D
:1052800020B121680423022200F0B2F866620820EF
:10529000FEF701FF064620B121680623042200F034
:1052A000A7F8A6620820FEF7F6FE064620B12168A0
:1052B0000B23022200F09CF8E6620820FEF7EBFECA
:1052C000064620B161690023012200F091F82663AF
:1052D0000820FEF7E0FE064620B1616901230222A4
:1052E00000F086F8002120466663FFF712FF0021D8
:1052F0002046FFF713FF00212046FFF712FF002191
:105300002046FFF71AFF00212046FFF70DFF00217E
:105310002046FFF71BFF01212046FFF7FAFE284633
:1053200004B070BD10B5016082809DF80C109DF82E
:105330000820C1710272837110BD1FB583888DF87A
:105340000C301B0A8DF80D30C379019303AB009329
:105350000068012300F09EF805B05DF804FBF0B48E
:105360000C4602B98279042A13D800F10905831882
:105370002946834209D0077AE6B227B92E70240A5B
:105380000135013BF5E71E72F9E7F0BC1846FFF75F
:10539000D4BF0020F0BC704713B504460B4681888B
:1053A00004F8091F0021CDE90021012221460068EF
:1053B00000F0B9F802B010BD38B500F109058279E6
:1053C00029460446FFF7E8FF78B1A279294622442E
:1053D0000020A2420BD00302207A20B9107A184391
:1053E000013A0131F5E70878F9E74FF0FF3038BDB1
:1053F00010B501600271437110BD10B5044600681C
:10540000FFF7DAFF23795A1C012393406279013BAD
:10541000D040184010BD70B5044600680E46FFF736
:10542000CBFF23796179013301229A40531E03FA9D
:1054300001F520EA05053340206803FA01F129430C
:105440008279BDE87040FFF78ABF42600022017098
:105450000272704710B5037A044653B12178606830
:1054600001F08AFE606801F092FEB0FA80F0400917
:1054700010BD00F003F80028F0D1F9E710B504469C
:10548000406801F047FE012323722046BDE810402A
:10549000FFF7E0BF2DE9F843DDE908961F469319B1
:1054A000202B04468846154602D90020BDE8F88323
:1054B0000178406801F060FE7EB9606803682A46A2
:1054C000DB68414698478542EFD16068394601F074
:1054D0005AFEB0FA80F04009E8E7B9F1000FECD0CD
:1054E000606803683246DB68494698478642DCD1EB
:1054F000E3E7202A70B506460C4615460FD801781A
:10550000406801F024FEA84209D12518A54208D020
:10551000706803685B69984704F8010BF6E70020A0
:1055200070BD0120FCE773B51D460023CDE90033B3
:105530009DF81C30069E0446FFF7ACFF40B10123E6
:1055400032462946204602B0BDE87040FFF7D1BF81
:1055500002B070BDF8B504460D4617461E4613B39B
:105560000178406801F008FE6068036829469B687E
:105570009847606801F00BFE0546A0B92178606885
:10558000F2B201F0F6FD606803681B69984708B93C
:105590000020F8BD606803685B699847785501355D
:1055A000AE42F0D8F4E76FF00100F2E701F04AB83C
:1055B000F8B504460D4617461E46ABB10178406863
:1055C00001F0DAFD6068036829469B68984700256A
:1055D0006068795D036801359B689847AE42F7D8EB
:1055E000606801F0D4FD08B16FF00100F8BD000063
:1055F000094B10B54361094B0361094B83615C237F
:1056000080F82030044601F0A3FF04F1200360621B
:10561000E361204610BD00BF55550B00B1550B008E
:10562000AD550B0000211030FEF75EBD13B500F143
:10563000100402212046FEF757FD01A92046FEF77F
:1056400085FD18B99DF80430DB07F6D402B010BD13
:1056500013B580F820100446426201A91030FEF70D
:1056600036FD50B99DF80430B42B08D12046FFF721
:10567000DDFF10B92046FFF7D5FF02B010BD4FF097
:10568000FF30FAE737B590F82930044600F11005ED
:105690002BB900F128012846FEF7A3FD70B901A936
:1056A0002846FEF753FD48B99DF804305B06F6D551
:1056B000224604F128012846FEF7AEFD03B030BDB6
:1056C00008B5024B1B689B68019308BD6802030084
:1056D00008B5024B1B68DB68019308BD6802030034
:1056E00008B5024B1B685B68019308BD2C020300E0
:1056F00008B5024B1B689B68019308BD2C02030090
:1057000008B5024B1B68DB68019308BD2C0203003F
:1057100008B5024B1B681B69019308BD2C020300EE
:1057200008B5024B1B689B6A019308BD2C0203005D
:1057300008B5024B1B681B6B019308BD2C020300CC
:1057400008B5024B1B689B6F019308BD2C02030038
:1057500008B5024B1B685B68019308BD1802030083
:1057600008B5024B1B685B69019308BD1802030072
:1057700008B5024B1B689B6D019308BD180203001E
:1057800008B5024B1B685B6E019308BD180203004D
:1057900008B5024B1B685B6C019308BD480203000F
:1057A00008B5024B1B685B69019308BD64020300E6
:1057B00008B5024B1B68DB68019308BD3C0203007F
:1057C00008B5024B1B681B69019308BD3C0203002E
:1057D00008B5024B1B685B69019308BD3C020300DE
:1057E00008B5024B1B689B69019308BD3C0203008E
:1057F00008B5024B1B68DB69019308BD3C0203003E
:1058000008B5024B1B681B6A019308BD3C020300EC
:1058100008B5024B1B689B6A019308BD3C0203005C
:1058200008B5024B1B68DB6A019308BD3C0203000C
:1058300008B5024B1B681B6C019308BD3C020300BA
:1058400008B5024B1B68DB68019308BD2802030002
:1058500008B5024B1B689B69019308BD2802030031
:1058600008B5024B1B68DB69019308BD28020300E1
:1058700008B5024B1B681B6A019308BD2802030090
:1058800008B5024B1B685B6A019308BD2802030040
:1058900008B5024B1B689B6A019308BD28020300F0
:1058A00008B5024B1B68DB6A019308BD28020300A0
:1058B00008B5024B1B681B6B019308BD280203004F
:1058C00008B5024B1B685B6B019308BD28020300FF
:1058D00008B5024B1B681B6C019308BD280203002E
:1058E00008B5024B1B689B6C019308BD280203009E
:1058F00008B5024B1B68DB6C019308BD280203004E
:1059000008B5024B1B681B6D019308BD28020300FC
:1059100008B5024B1B68DB69019308BD3002030028
:1059200008B5024B1B681B6A019308BD30020300D7
:1059300008B5024B1B681B68019308BD4C020300AD
:1059400008B5024B1B685B68019308BD4C0203005D
:1059500008B5024B1B681B69019308BD4C0203008C
:1059600008B5024B1B685B69019308BD4C0203003C
:1059700008B5024B1B689B69019308BD4C020300EC
:1059800008B5024B1B68DB69019308BD4C0203009C
:1059900008B5024B1B681B6A019308BD4C0203004B
:1059A00008B5024B1B685B6A019308BD4C020300FB
:1059B00008B5024B1B681B6D019308BD6002030014
:1059C00008B5024B1B685B6D019308BD60020300C4
:1059D00008B5024B1B681B68019308BD2002030039
:1059E00008B5024B1B685B68019308BD20020300E9
:1059F00008B5024B1B685B69019308BD20020300D8
:105A000008B5024B1B68DB6C019308BD2002030044
:105A100008B5024B1B685B6D019308BD20020300B3
:105A200008B5024B1B689B6D019308BD2002030063
:105A300008B5034B1B68D3F88830019308BD0000FC
:105A40002002030008B5034B1B68D3F89430019380
:105A500008BD00002002030008B5034B1B68D3F803
:105A6000A830019308BD00002002030008B5034BD5
:105A70001B68D3F8AC30019308BD0000200203007E
:105A800008B5024B1B685B68019308BD4002030028
:105A900008B5024B1B689B68019308BD40020300D8
:105AA00008B5024B1B68DB68019308BD4002030088
:105AB00008B5024B1B681B69019308BD4002030037
:105AC00008B5024B1B685B69019308BD40020300E7
:105AD00008B5024B1B689B69019308BD4002030097
:105AE00008B5024B1B68DB69019308BD4002030047
:105AF00008B5024B1B681B6A019308BD40020300F6
:105B000008B5024B1B681B6B019308BD40020300E4
:105B100008B5024B1B685B6B019308BD4002030094
:105B200008B5024B1B681B6C019308BD40020300C3
:105B300008B5024B1B685B6C019308BD4002030073
:105B400008B5024B1B689B68019308BD4402030023
:105B500008B5024B1B68DB68019308BD44020300D3
:105B600008B5024B1B685B69019308BD4402030042
:105B700008B5024B1B681B6A019308BD4402030071
:105B800008B5024B1B68DB6A019308BD44020300A1
:105B900008B5024B1B681B6B019308BD4402030050
:105BA00008B5024B1B68DB6B019308BD4402030080
:105BB00008B5024B1B681B68019308BD1C0203005B
:105BC00008B5024B1B685B68019308BD1C0203000B
:105BD00008B5024B1B689B68019308BD1C020300BB
:105BE00008B5024B1B681B69019308BD1C0203002A
:105BF00008B5024B1B68DB6A019308BD1C02030059
:105C000008B5024B1B681B6B019308BD1C02030007
:105C100008B5024B1B68DB6B019308BD1C02030037
:105C200008B5024B1B681B6C019308BD1C020300E6
:105C300008B5024B1B685B6C019308BD1C02030096
:105C400008B5024B1B68DB6C019308BD1C02030006
:105C5000002240681146FFF74BBF00224068114602
:105C6000FFF756BF40680022FFF74ABF4068002296
:105C700081F00101FFF734BF002340681A4619463E
:105C8000FFF726BF002340681A461946FFF718BFE2
:105C9000002240681146FFF70BBF00224068114602
:105CA000FFF7F6BE406800220221FFF7F9BE00238D
:105CB00040681A46FFF7E4BE024B03225A60024ACC
:105CC0001A60704768E6032088990B0010B50446F7
:105CD00008462170FFF71CFE00236360204610BDBC
:105CE00010B50446006818B1FFF76AFF002323606F
:105CF00010BD38B50C460546FFF7F2FF54B12088B9
:105D0000FFF756FF286028B122882146BDE83840B9
:105D100003F0F8BB38BD38B5B1F904308380D1F851
:105D20000630C0F806304B8943810C460546FFF724
:105D3000D7FF236813B12B600023236038BD000018
:105D4000F0B52B4D0B7D04468BB00846AF1D002BE4
:105D500036D00B681B79002B32D0264B04930022DF
:105D600002A90430CDE90222FFF780FEDDF80E30F3
:105D7000C5F8063000B2BDF81230ADF80C00A880AE
:105D80000299BB802846FFF7B4FF02A8FFF7A8FFDF
:105D900000232360A380A37123814FF6FF736381E7
:105DA000B5F90430A380D5F80630C4F80630BB88B6
:105DB000296863812046FFF79CFF20460BB0F0BDA9
:105DC00000262023CDE902360B4B009302AA33466E
:105DD0000A493220FFF7ECFD064B054802964FF6C4
:105DE000F26202A9CDE90323FFF795FFCDE700BFDB
:105DF00070E603200000FFFFC3990B00BC990B0065
:105E0000054B02221A60054B054A9A600020C3E93F
:105E10000000FFF7E5BD00BF7CE6032070E603202D
:105E20000000FFFF10B5044603F0D5FB013823182E
:105E30002046834206D90278197800F8011B03F83E
:105E40000129F6E710BD70B50C46911E22291DD818
:105E5000254630B9234430229D4210D205F8012B4B
:105E6000FAE7B0FBF2F602FB1600C1B2092894BFB4
:105E700030315731C9B205F8011B3046E9E700233C
:105E800020462B70FFF7CEFF204670BD0020FCE7B8
:105E900038B5031E0C4615460EDAB3F1004F4FF02D
:105EA0002D0214BF5842184601230A702A4619448D
:105EB000FFF7C9FF204638BD0123F9E72DE9F14F6F
:105EC00057EC106B80460C4610EE100A002200239F
:105ED000394603F041F828B107F100431F462D234E
:105EE00004F8013B00234FF001090A22D9B288458A
:105EF00003D902FB09F90133F8E7484602F050FDE7
:105F000032463B4602F0B6FD06460F4603F046F920
:105F10008A4605468B4602F077FD02460B46304620
:105F2000394602F0EFFB144B002203F029F810B1C0
:105F300001354AF1000B4A462846D317594603F06B
:105F4000E1F80123154621460A22FFF77CFFB8F14C
:105F5000000F0ED0204603F03EFB2E2321182354C1
:105F60000A2243460131284601B0BDE8F04FFFF751
:105F70006ABF01B0BDE8F08F0000E03F10B50446F5
:105F80000068FFF71DFE204610BD10B504460068EE
:105F900008B1FFF715FE0023C4E90133236010BDEB
:105FA00038B504460D4600680131FFF711FE10B107
:105FB000C4E90005012038BD10B50368044623B1CB
:105FC00043688B4201D3012010BD2046FFF7E8FF54
:105FD0000028F9D0A368002BF5D122681370F2E7EE
:105FE00037B50D46114601920446FFF7E5FF019AC9
:105FF00028B92046FFF7C9FF204603B030BDA26094
:106000002946206803F07EFA2268A3680021D15453
:10601000F2E7002313B5C0E900330446836003733D
:1060200041B10846019103F0D6FA01990246204693
:10603000FFF7D6FF204602B010BD38B50546006810
:106040000C4668B16A688B689A4207D3096803F006
:106050009DFAA368AB600023A36038BDFFF7B0FDD5
:1060600023682B6063686B60A368AB600023C4E99E
:106070000033F1E7884210B5044605D00B682BB118
:106080008A681946FFF7ACFF204610BDFFF77DFF79
:10609000FAE710B500230446C0E9003383600373B8
:1060A000FFF7E8FF204610BD884210B5044601D036
:1060B000FFF7C3FF204610BD884210B5044601D04B
:1060C000FFF7BBFF204610BD13B5044659B1084683
:1060D000019103F080FA019902462046FFF780FF04
:1060E000204602B010BDFFF750FFF9E710B5044697
:1060F0008AB00023C4E90033A3602373084601A9D2
:10610000FFF7C6FE01A92046FFF7DEFF20460AB0D2
:1061100010BD30B5044600238BB0C4E90033A36042
:10612000237310EE100ACDB202F04CFC41EC100BC0
:1061300001A92846FFF7C2FE01A92046FFF7C4FFC8
:1061400020460BB030BD70B505460E4609B900209B
:1061500070BD6AB1846814442146FFF72DFF002802
:10616000F5D02868AB683146184403F00FFAAC60EC
:106170000120EDE710B58A6809680446FFF7E3FFE0
:1061800010B92046FFF701FF204610BD13B50446A5
:1061900029B92046FFF7F9FE204602B010BD084697
:1061A000019103F018FA019902462046FFF7CBFF50
:1061B0000028EED0F0E710B58368044613B103223F
:1061C00001469847204610BD10B54368013B044680
:1061D000436063B903689B689847A368013BA36069
:1061E0002BB923682046DB68BDE81040184710BD76
:1061F00010B50446006808B1FFF7E6FF204610BD61
:1062000013B50B460246D0E900016C4684E8030052
:1062100093E8030082E8030094E8030083E80300A6
:1062200002B010BD024800230360FFF7B1BA00BFFF
:1062300080E60320F8B506460D468F180024BD42BF
:106240000CD0336815F8011B9B6830469847031E35
:1062500001DB1C44F3E7002C08BF1C462046F8BDB8
:1062600013B50446084659B1019103F0B4F9236807
:106270000199DB680246204602B0BDE8104018478D
:1062800002B010BD08B5FFF7EBFF08BD03689B68BF
:10629000184708B5FFF7E4FF08BD38B50D210546DE
:1062A000FFF7F4FF0A2104462846FFF7EFFF2044DA
:1062B00038BD38B50546FFF7D3FF04462846FFF73B
:1062C000ECFF204438BD30B58BB00023012A8DF897
:1062D000243098BF0A2209AC0D46B1FBF2F101FB54
:1062E000125303F0FF03092B94BF30333733DBB273
:1062F000AA4204F8013DEFD92146FFF7B1FF0BB0E8
:1063000030BD00002DE9F74F55EC104B06460F4607
:1063100010EE102A10EE100A2B46294602F044FE19
:1063200040B153493046FFF79BFF8246504603B0C9
:10633000BDE8F08F25F000494E4B4FF0FF3220466C
:10634000494602F031FE48B94A4B4FF0FF32204631
:10635000494602F00BFE08B94749E3E7474B4FF0C7
:1063600060422046294602F015FE08B14449D9E7AB
:10637000444B4FF060422046294602F0EDFD0028D4
:10638000F4D1002200232046294602F0E5FDD0B1D9
:106390002D213046FFF77AFF05F1004382461D4666
:1063A0003949DFF8EC904FF0000B00204FF0000867
:1063B0005FFA8BF39F4208D942464B4602F084FCB9
:1063C0000BF1010BF4E78246EAE722462B4602F086
:1063D0009BF90D46044602F025FE804602F0D0FAF5
:1063E00002460B462046294602F08CF90A22044652
:1063F0000D4630464146FFF766FF8244002F95D098
:106400002249DFF88C903046FFF72AFF4FF0000852
:106410008244002F8AD042464B462046294602F04D
:1064200029FB04460D4602F0D5FDB0F1000B1CDA45
:106430002D213046FFF72AFFCBF1000103460A2247
:1064400030460193FFF73FFF019B184482445846B2
:1064500002F0A6FA02460B462046294602F052F9FF
:10646000013F04460D46FFB2D3E759460023E6E755
:10647000EA990B00FFFFEF7FEE990B00FFFFEF4162
:10648000F2990B00FFFFEFC10000E03F5D980B00A9
:106490000000244038B5044610EE100ACDB202F0D8
:1064A00091FA41EC100B29462046BDE83840FFF731
:1064B00029BFC9B2FFF726BF38B5C9B20546FFF7F5
:1064C00021FF04462846FFF7E8FE204438BD38B5D2
:1064D000044610EE100A0D4602F074FA41EC100B5F
:1064E00029462046BDE83840FFF7E6BF8160704787
:1064F000014B024A1A60704784E60320F6990B00AC
:1065000008B50020FFF744FB28B1FFF729FB80F016
:106510000100C0B208BD0120FCE70000FAEE087AD5
:10652000B4EEE70AF1EE10FA08B511D4F2EE0C7AE7
:10653000B4EEE70AF1EE10FA0ADCDFED067A60EE5F
:10654000277A17EE900A02F0F5FD034BC3E900012C
:1065500008BD00BF0000614598E6032030B593B048
:10656000CDE90023194B0446D3E90010019B5218D2
:1065700043EB00031648D0E90010521843EB000328
:10658000CDE9002324220DEB0200002102F0C8FF18
:10659000002509A96846FFF753FB1622294603A8E0
:1065A000029502F0BDFF02A909A802F07FFF02A830
:1065B00003F011F812AB184402A900F8415C204620
:1065C000FFF727FD204613B030BD00BF98E603203B
:1065D00090E6032010B50020FFF7CAF80446A0B9E2
:1065E000FFF7F6F9012810D12046FFF719FA60B934
:1065F000FFF786FF10B9FFF7A3FAF9E7FFF780FF6F
:10660000BDE810400020FFF7B3B8204610BD1FB50D
:10661000FFF7E0FF10220021684602F081FF002111
:106620006846FFF7ADF8009805B05DF804FB000080
:10663000024B1A68024B1A60704700BFB8E403208F
:1066400088E603200021FFF7D3B90000014B0022A8
:106650009A607047A0E60320006800F09BBD10B56B
:106660000446016002710AB1FFF7F6FF204610BD33
:1066700013B50446019100F08FFF019A01462046B0
:10668000FFF7EDFF204602B010BD006800F08BBDA3
:1066900010B5037904460BB1FFF7F7FF204610BD94
:1066A000014B1860704700BFC4E4032008B50B4BD2
:1066B00043B100F005FC03681B699847002801DD21
:1066C000AFF30080064B43B100F0E8FE03681B699E
:1066D0009847002801DDAFF3008008BD00000000EE
:1066E0000000000008B5FFF7E1FFFFF739F8014BA4
:1066F000186008BD2CE703200548064A064908B57E
:10670000121A02F0FFFE054B054A1A6008BD00BFD1
:1067100000F4032004F40320AC9C0B0000F40320DD
:106720001E1C279A07B5002300931A466FF07701C5
:10673000FFF788F903B05DF804FB000007B5438854
:106740000A2B08D0502B0BD1094B1B684BB103B05F
:106750005DF804EB1847FFF7E5FF03B05DF804FBB5
:10676000002300931A466FF07701FFF76BF9F4E707
:10677000B4E6032010B512480021FFF759FA114B77
:106780001A68114B9A42114B0CBF012200221A7059
:1067900001D0FFF7B1FFFEF7DBFF044602F0C8FEB1
:1067A0000B4B13B12046AFF3008000210848FFF7E0
:1067B000F7F9BDE8104007480021FFF739B900BFDD
:1067C000A1660B0000F403201E1C279AB0E60320EC
:1067D000000000003D670B0070470020704710B5B7
:1067E00010210446FDF75BFC204610BD08B5FFF7FD
:1067F000F6FF08BD30B500224FF69C74026084801D
:106800008D888C800C68858004600A6030BD10B56E
:1068100004460068FFF7D4F9204610BD38B5C468B7
:10682000F4B12378022B03D104F10C00FFF7EFFF42
:10683000656835B12846FFF7BEFC10212846FDF7F4
:106840002EFCA56835B12846FFF7B5FC1021284677
:10685000FDF725FC20461421BDE83840FDF71FBC9C
:1068600038BD0B6803604B68436013B15A6801324E
:106870005A60704737B5044668460D46FFF7F1FF8A
:10688000009B019A23606260002301A8019300939A
:10689000FFF7AEFC35B1281DFFF7AAFC08212846FA
:1068A000FDF7FDFB204603B030BD826810B50AB984
:1068B00000F09AFEBDE81040C368184708B50068AC
:1068C00000F11001FFF7F1FF08BD826810B50AB9A9
:1068D00000F08AFEBDE81040C368184708B500689C
:1068E00000F11001FFF7F1FF08BD000038B50023EB
:1068F0000446036010200D46FDF7CDFB28B10123AF
:10690000C0E90133024B0360C5602060204638BDFA
:10691000209A0B0038B5002383608B6804460D462F
:106920002BB102229847EB68E360AB68A360204676
:1069300038BD0000F0B589B004686846FFF75AFF1B
:106940004FF00203D4E84F2F002A03D1C4E8413F9F
:106950000029F7D125D104F10C0569462846FFF737
:1069600049FFBFF35B8F01236370002004F108032C
:10697000BFF35B8F53E8006F43E80002002AF9D1B0
:10698000BFF35B8F6EB1FFF73BF878B12946304615
:10699000FFF78BFF3046FFF70EFC10213046FDF766
:1069A0007EFB6846FFF733FF09B0F0BD314602A811
:1069B000FFF7B0FFE068B4F9105008B102F0EEFD47
:1069C00006901020ADF81C50FDF765FB0546E8B1B8
:1069D000002787601820FDF75EFB044688B101465A
:1069E000876002A8FFF70CFC049BA268A360059BCC
:1069F000049206A9E268E36004F110000592FFF733
:106A0000F9FE084BEB60084B2C60AB6006A8FFF763
:106A1000FEFE02A8FFF7CFFB002229460348FEF73F
:106A2000F7FFB7E7BD680B00416B0B0057700B0019
:106A30002DE9F04F8BB005469DF850A00F469046CB
:106A40009946FFF78DF807AE834638BB4FF62E7395
:106A5000059005A93046ADF81830FFF7CBFE14209D
:106A6000FDF719FB044648B1022303700123C0E976
:106A700001BB437031460C30FFF7BCFE284621466F
:106A800040F8044BFFF732FF3046FFF7C0FE05A881
:106A9000FFF7BDFE28460BB0BDE8F08F0C230024A5
:106AA0001420CDE908440793FDF7F5FA014618B123
:106AB000C0E901440470447004A80391FFF716FF75
:106AC0001E4B08930820FDF7E6FA044610B103A90F
:106AD000FFF7C7FE00965FFA8AF34A4641463846FA
:106AE0000994FFF745F8B8B9039B5B7803F0FF0200
:106AF00093B94FF69C7305A903A80592ADF8183019
:106B0000FFF718FF05A8FFF782FE05A80999FFF710
:106B1000B1FE06A8FFF76CFB03A905A8FFF7A1FECD
:106B2000059B069A2B606A60002306A806930593CE
:106B3000FFF75EFB04A8FFF75BFBABE7BD6B0B0049
:106B4000012AF8B5054603D10B6803600020F8BDA3
:106B5000022A10D0032AF9D10468002CF6D004F1DF
:106B60001000FFF754FE2046FFF725FB18212046B2
:106B7000FDF795FAEAE718200E68FDF78CFA04464F
:106B800050B13146FFF7C6FE3069B6F9147008B14E
:106B900002F004FD2061A7822C60D7E738B50023FE
:106BA00083608B6804460D462BB102229847EB6840
:106BB000E360AB68A360204638BD0000F0B589B043
:106BC00004460D4601A81146FFF754FEA4B124B2B5
:106BD0001DB1284602F0E2FC054601A803A9039571
:106BE000ADF81040FFF7A6FE03A8FFF710FE02A8BD
:106BF000FFF7FEFA09B0F0BD019D0123D5E84F2F44
:106C0000002A03D1C5E8413F0029F7D1EFD12B730A
:106C1000BFF35B8F6B702B1DBFF35B8F53E8006F6F
:106C200043E80042002AF9D1BFF35B8F002EDED08B
:106C30002046FEF7E5FE074660B105F10C0130463F
:106C4000FFF743FE3046FFF7B6FA10213046FDF756
:106C500026FACCE7314603A8FFF7A0FF2B7B8DF87F
:106C60001C301020FDF717FA0546D0B187601420BC
:106C7000FDF711FA044678B18760014603A8FFF7D3
:106C8000BFFA059BA268A360069B0592E268E360D9
:106C90009DF81C3006922374064BEB60064B2C606B
:106CA000AB6003A8FFF787FA002229460348FEF7E6
:106CB000AFFEC7E7DD680B00C16C0B0057700B001F
:106CC000012A70B5044603D10B680360002070BD33
:106CD000022A0CD0032AF9D10468002CF6D02046F1
:106CE000FFF769FA14212046FDF7D9F9EEE71420E1
:106CF0000E68FDF7D0F9054620B13146FFF74EFF8B
:106D0000337C2B742560E1E7704710B518210446E9
:106D1000FDF7C5F9204610BDF0B5037D062B8DB0FB
:106D20000E4600F104074FF0000412D000F10805F0
:106D300015F8011D0A223046FFF7C5FAAF42044498
:106D400019D0002CF4D02E213046FFF79FFA0444CE
:106D5000EEE72F236A4639460A208DF80040FEF7F9
:106D60001FFD684602F037FC33680246DB6869465F
:106D700030469847044620460DB0F0BD10B5054B8F
:106D80000446112240F8043B002102F0C9FB2046D2
:106D900010BD00BF3C9A0B000346074A10B543F8EC
:106DA000042B01F1100251F8044B43F8044B9142BB
:106DB000F9D10A781A7010BD3C9A0B0010B59DF8F5
:106DC000084044EA032343EA024242EA0161042301
:106DD0004160037510BD000007B5064B0360CB781A
:106DE00000938B784A780978FFF7E8FF03B05DF8E5
:106DF00004FB00BF3C9A0B0041747047704770471A
:106E000008B50021007CFEF7B3FD40EAE07008BD44
:106E100008B50121007CFEF7ABFD40EAE07008BD3B
:106E200008B5007CFEF79CFD20EAE07008BD08B5BF
:106E3000007CFEF78DFD20EAE07008BD13B5044626
:106E4000007C0191FEF78CFD0028019901DC607C3B
:106E500020B1207CFEF794FD20EAE07002B010BD66
:106E6000007CFEF795BD10B514210446FDF717F917
:106E7000204610BD10B54FF47A7304460846002131
:106E8000C4E90113044B2360012320746374114689
:106E9000FEF74EFD204610BD509A0B00007C0022EC
:106EA000FEF74EBD007CFEF77BBDFFF7FBBF10B5C4
:106EB00014220446002102F033FB204610BD0000DE
:106EC00010B50F4C88B003A8FFF7F1FF2178BFF38E
:106ED0005B8F11F001010FD120460191FDF7E1F820
:106EE000019948B103AA0748FFF7C4FF2046FDF700
:106EF000DDF8054802F000FB024808B010BD00BFF5
:106F0000B8E60320BCE60320FD6D0B0000224068BC
:106F10001146FEF7CDBD002240681146FEF7E8BDE0
:106F2000002240681146FEF7F3BD40680022FEF7DC
:106F3000E7BD4068002281F00101FEF7D1BD0023CA
:106F400040681A461946FEF7C3BD002340681A463A
:106F50001946FEF7B5BD002240681146FEF798BD00
:106F6000406800220221FEF79BBD002340681A46BC
:106F7000FEF786BD084B10B528242246184600218E
:106F800002F0CEFA054B04804FF0FF32426004223B
:106F90005A60034A1A6010BDD8E60320D0E60320E9
:106FA000809A0B0070474174704708B5007CFEF76B
:106FB0002FFC20EAE07008BD08B5007CFEF700FC5D
:106FC00020EAE07008BD08B5007CFEF709FC40EA45
:106FD000E07008BD08B5007CFEF7FAFB40EAE070FF
:106FE00008BD007CFEF704BC37B5457C04462DB1D6
:106FF000207C03B0BDE83040FEF7DABB007C019195
:10700000FEF706FC00280199F2DC284603B030BDEB
:1070100010B514210446FDF742F8204610BD0000CB
:1070200010B54FF47A730446084611460022C4E9AD
:107030000123044B2360012320746374FEF7F8FBE3
:10704000204610BDBC9A0B00007C0023FEF7E8BB75
:107050000022FFF7F9BF10B5836804460BB900F0B2
:10706000C3FAC3689847A3681BB103222146204690
:10707000984720461021BDE81040FDF710B8704732
:10708000F8B5064615460C468F18BC4206D0336844
:1070900014F8011B9B6830469847F6E72846F8BD70
:1070A000007C0022FEF7E4BB007C0021FEF7E8BB79
:1070B000007C0021FEF7ECBB007C0021FEF7F0BB5A
:1070C000007C0021FEF7F4BB10B514210446FCF748
:1070D000E6FF204610BD000038B5044615464FF4C3
:1070E0007A730022C4E90123094B21740846236006
:1070F0002946FEF7EDFBBF3008D16B69DB0705D5EC
:107100006868FEF75DFDE868FEF75AFD204638BD69
:10711000EC9A0B000023007C1A461946FEF790BB40
:107120007FB500221423CDE90122ADF804300B789D
:107130008DF808304B680393CB680493007C0B7A7E
:10714000059301A9FEF7DCFB07B05DF804FB1FB552
:10715000003B8DF800104FF06401039118BF01232C
:10716000694601928DF80830FFF7DAFF05B05DF847
:1071700004FB0123FFF7EBBF007C0022FEF768BB96
:10718000C9B2FFF7F9BF007C0022FEF769BB0121FD
:10719000FFF7F9BF08B50021007CFEF7A1FBB0FAAC
:1071A00080F0400908BD08B50021007CFEF7A0FB77
:1071B000B0FA80F0400908BD002340681A46FEF787
:1071C0005FBC406800220221FEF76ABC00224068D2
:1071D0001146FEF75DBC002240681146FEF768BC10
:1071E000002340681A461946FEF76ABC002340682F
:1071F0001A461946FEF76CBC40680021FEF790BCA9
:1072000040680021FEF794BC4068002281F0010133
:10721000FEF766BC40680022FEF772BC00224068A0
:107220001146FEF775BC002240681146FEF760BCAF
:107230002DE9F04395B014460D460746FFF79EFD35
:1072400000211C220DA8009102F06AF940230C9342
:1072500020466B460CAA0021FEF73AFA04460028A5
:107260004BD1024601216868FEF722FC02218046CC
:1072700022466868FEF71CFC009E81462146002ECF
:107280003BD0002939D17368022B03D00A2B11D0CF
:10729000F669F4E7B8F1000FFAD0716906A8043175
:1072A00007ADFFF799FD0FCD3C1D0FC42B68237070
:1072B0004146EDE7B9F1000FEAD07469102201A848
:1072C00002F02EF906238DF8143001AD04F1080305
:1072D0001834186859682A4603C20833A342154671
:1072E000F7D101A906A807ADFFF756FD0FCD3C1D4C
:1072F0000FC42B6823704946CAE70098FEF7E0F9EF
:10730000384615B0BDE8F083024B034A1A600022EC
:107310005A60704700E70320149B0B00232813B525
:1073200002D9002002B010BDA0F10B03022B1AD825
:10733000174C2178BFF35B8F11F001010BD1204670
:107340000191FCF7AEFE019928B11248FEF7BEFC90
:107350002046FCF7ABFE0F4B1878FEF7E1FA002849
:10736000DFD10120DEE7012809D800F0F1F8002183
:10737000007CFEF7A5FA80F00100C0B2D2E7093820
:107380000128EED800F08AF8007CFEF739FAF2E71F
:1073900008E703200CE70320232838B504460D46F0
:1073A0000AD8FF2908D0FFF7B9FF28B1294620469F
:1073B000BDE83840FEF79CB938BD38B504460D46E7
:1073C000FEF79EF9FF2810D0062804D84D2323FA93
:1073D00000F0C30709D42046FFF7A0FF28B12946D3
:1073E0002046BDE83840FEF793B938BD0D2810B5EA
:1073F00004469CBF0E34A4B22046FFF78FFF50B165
:1074000003212046FEF76CF9032804D12046BDE88D
:107410001040FEF78DB9002010BD38B504460D466A
:10742000FFF77CFFF0B104212046FEF759F904284C
:1074300005D1A9B22046BDE83840FEF771B9022156
:107440002046FEF74DF902280CD12046FEF758F9E8
:10745000012801D0042805D129462046BDE838403E
:10746000FEF76EB938BD704738B5044614252A4674
:10747000002102F055F8258040250749258128463E
:10748000258200F0AFF804496060284600F0AAF8B1
:10749000E060204638BD00BF489B0B0030B50E4D64
:1074A0002978BFF35B8F11F0010487B011D1284612
:1074B000FCF7F7FD68B101A8FFF7D6FF01AA214646
:1074C0000648FFF7ADFD2846FCF7F0FD044802F042
:1074D00013F8024807B030BD14E7032018E7032073
:1074E00067740B007047704738B50A4B036001237F
:1074F000044643610849202000F074F820256060AC
:107500000549A560284600F06DF8C4E9030520464A
:1075100038BD00BF18000100489B0B0038B50A4B6E
:1075200003600123044643610849202000F05AF813
:10753000202560600549A560284600F053F8C4E99D
:107540000305204638BD00BF18000100489B0B0012
:1075500030B50E4D2978BFF35B8F11F0010487B071
:1075600011D12846FCF79DFD68B16846FFF7BCFFC6
:107570006A4621460648FFF7AFFD2846FCF796FD10
:10758000044801F0B9FF024807B030BD30E70320DE
:1075900038E70320E5740B0010B50E4C2378BFF3D9
:1075A0005B8FDB0786B011D42046FCF77AFD68B10B
:1075B0006846FFF7B3FF6A4601210748FFF78CFDD5
:1075C0002046FCF773FD054801F096FF024806B01F
:1075D00010BD00BF34E703204CE70320E7740B0025
:1075E000FCF759BDFCF759BD08B5FEF701FB0000DB
:1075F000F8B52DED028B57EC106B55EC114B00F0EC
:10760000CBF8634BB0EE408AF0EE608A93F900301D
:1076100001332AD022462B462046294601F0C4FCDD
:1076200018BB32463B463046394601F0BDFC0028C7
:1076300044D1002200233046394601F083FCD8B102
:10764000002200232046294601F07CFC00283DD181
:1076500045EC104B00F010FF38B1204629460022BF
:10766000002301F079FC00285CD1B0EE480AF0EE6E
:10767000680ABDEC028BF8BDB0EE480AF0EE680A6D
:1076800000F0FAFE58B351EC180B0022002301F071
:1076900059FC0028E9D047EC106B00F0EDFE002803
:1076A000E3D045EC104B00F0E7FE0028DDD0FEF7FC
:1076B000AFFA22239FED2E8B0360D6E720462946A2
:1076C0000022002301F03EFC0028CED09FED2A8B43
:1076D000B0EE480AF0EE680ABDEC028BF8BD47EC4C
:1076E000106B00F0C9FE0028CDD045EC104B00F027
:1076F000C3FE0028C7D053EC182B18EE100A194609
:1077000001F052FC20BBFEF783FA034622221A60E6
:10771000304639460022002301F01EFC48B99FED97
:10772000188BA2E7FEF774FA21239FED178B0360F5
:107730009BE745EC104B00F0B3FE224651EC100BDA
:107740002B4601F0FFFB0028E9D19FED0F8B8CE762
:10775000FEF75EFA0022002321210160104619463F
:1077600001F0B2FA41EC180B7FE700BFAFF30080E5
:107770000000000000000000000000000000F03FDA
:10778000000000000000F07F000000000000F0FF9B
:10779000C0E40320000000002DE9F04F57EC116B0E
:1077A0002DED0C8B27F0004A5AEA060287B03DD037
:1077B00055EC104B724925F00048884510EE102A10
:1077C000A9462CDC11EE103ABB4636D08A4526DCA1
:1077D0006B498A4521D0B9F1000F39DB00210091B6
:1077E000002B51D1664B9A4500F0A280654B9A451B
:1077F00000F0B080BBF1804F00F0C084624B9B452D
:1078000042D1B9F1000F3FDB45EC104B07B0BDECA6
:107810000C8BBDE8F04F00F059BD002BDBD008F118
:10782000404808F5801858EA020309D19FED500B33
:1078300007B0BDEC0C8BBDE8F08F0CB9C245C7DDBD
:10784000524807B0BDEC0C8BBDE8F04F00F020BEF5
:107850004F498A4500F38580A1F154718A450FDDB7
:107860004FEA2A51A1F2FF31142940F39B84C1F160
:10787000340123FA01F000FA01F1994200F0ED849D
:1078800000210091002BB1D045EC104B029200F08A
:10789000E9FD029A5ABBB8F1000F04D0394B29F028
:1078A00040429A4223D1BBF1000F07DA53EC102B70
:1078B0003449002001F008FA41EC100BB9F1000F37
:1078C000B6DA009B08F1404808F5801858EA03032F
:1078D00040F08D8453EC102B1046194600F012FF37
:1078E00002460B4601F0F0F941EC100BA0E7009ABC
:1078F0004FEAD973013B0493134335D0254B9A4586
:107900004CDD03F104739A45234B40F3DB83984528
:1079100040F36083BBF1000F40F3608316A3D3E90B
:1079200000231046194601F0A5F841EC100B7FE743
:1079300008F1404303F5801313433FF477AF164B30
:10794000984540F37A83BBF1000FC0F2478347ECC0
:10795000106B6DE7BBF1000FC0F21A8445EC104BC1
:1079600066E7022100913BE722462B46B4E700BFC1
:10797000000000000000F03F9C7500883CE4377E6A
:107980000000F07F0000F03F0000E03F4C9B0B0048
:10799000FFFF3F430000E041FFFFEF3FE44B09EAF8
:1079A0000303002253B951EC100BE24B01F062F8D3
:1079B00041EC100B10EE908A6FF034024FEA28531E
:1079C000A3F2FF339A18DC4B0592C8F3130848F072
:1079D0007F54984544F4401407DDD84B984540F354
:1079E000148401320592A4F580149FEDB96B9FEDCC
:1079F000BA7B53EC162BB0EE47CAF0EE67CA0025EF
:107A0000B0EE47DAF0EE67DA5BEC10ABA346504617
:107A1000594643EC1A2B00F075FE53EC1A2B8046A6
:107A200089465046594600F06FFE02460B4600203C
:107A3000C34901F049F941EC1B0B404653EC1B2BA9
:107A4000494601F017F841EC180B0A460146CDE90A
:107A500002120021029164104BEC19AB44F0005467
:107A6000DDE902AB04F500230020591904460D4658
:107A700002460B465046594600F0FCFF02460B46B4
:107A80004046494600F03EFE53EC1A2B804689469C
:107A90002046294600F036FE02460B4651EC190BF3
:107AA00000F030FE52465B4600F0E4FF02460B4613
:107AB0004046494600F026FE53EC1B2B00F0DAFF4F
:107AC00053EC182B41EC190B51EC180B00F0D2FFC2
:107AD00083A3D3E9002304460D4600F0CBFF82A325
:107AE000D3E9002300F010FE22462B4600F0C2FF2F
:107AF0007FA3D3E9002300F007FE22462B4600F0C7
:107B0000B9FF7DA3D3E9002300F0FEFD22462B46FA
:107B100000F0B0FF7AA3D3E9002300F0F5FD224680
:107B20002B4600F0A7FF78A3D3E9002300F0ECFD7B
:107B30002246804689462B462046294600F09AFF79
:107B400002460B464046494600F094FF5246044622
:107B50000D465B4651EC180B00F0D6FD53EC192B8B
:107B600000F088FF22462B4600F0CEFD52468046AC
:107B700089465B465046594600F07CFF02460B465C
:107B800043EC1A2B6F4B002200F0BEFD42464B46E1
:107B900000F0BAFD00240D4622462B4650465946B9
:107BA00000F068FF674B82468B460022204629463C
:107BB00000F0A8FD53EC1A2B00F0A4FD02460B4682
:107BC0004046494600F09EFD53EC182B00F052FF52
:107BD00022462B4604460D4651EC190B00F04AFF95
:107BE00002460B462046294600F08EFD8046894617
:107BF00042464B465046594600F086FD44A3D3E921
:107C00000023002004460D4600F034FF524641ECAC
:107C1000190B5B462046294600F074FD02460B46D0
:107C20004046494600F06EFD3BA3D3E9002300F037
:107C300021FF02460B462046294614461D4638A31E
:107C4000D3E9002300F016FF02460B4620462946E2
:107C500000F05AFD53EC1D2B00F056FD80460598B0
:107C6000894600F09DFE424682468B464B4651ECCB
:107C7000190B00F049FD53EC1C2B00F045FD52465A
:107C80005B4600F041FD52465B46002004460D462F
:107C900000F038FD53EC1C2B00F034FD53EC192B95
:107CA00000F030FD02460B464046494600F02AFDF2
:107CB000009B049A013B134382468B4640F0B681F9
:107CC0009FED197BB0EE478AF0EE678A3CE000BF7B
:107CD000000000000000F03F000000000000000075
:107CE000EF4E454A287ECA3F65DBC9934A86CD3FA1
:107CF00001411DA96074D13F4D268F515555D53F87
:107D0000FFAB6FDBB66DDB3F033333333333E33F1E
:107D1000000000E009C7EE3FFD033ADC09C7EE3F73
:107D2000F5015B14E02F3EBE000000000000F0BF34
:107D30000000F07F000040438E98030079B60B00EE
:107D40000000F03F000008400023CDE900670093E9
:107D5000DDE90089304642464B46394600F0D2FC08
:107D600022462B4600F086FE32463B4606460F462C
:107D70005046594600F07EFE02460B4630463946D4
:107D800000F0C2FC42464B4606460F4620462946B6
:107D900000F070FE04460D462B463046394622461A
:107DA00000F0B2FCC24B9942804689468A4640F3B5
:107DB000188101F13F4303F5E003034340F00782DC
:107DC000A3A3D3E900233046394600F09DFC0246C8
:107DD0000B46404649469046994622462B4600F0BF
:107DE00091FC02460B464046494601F0D3F8002874
:107DF00040F0ED81CAF30A534FF48012A3F2FE3330
:107E000042FA03F35344AB49C3F30A52A2F2FF32DE
:107E100041FA02FCC3F3130141F48011C2F11402D0
:107E200041FA02F2002023EA0C01BAF1000F00929D
:107E30000B46024602DA0099494200912046294643
:107E400000F060FC009B1B05029302460B460446B3
:107E50000D463046394600F057FC89464FF0000881
:107E60007DA3D3E900234046494600F003FE2246A5
:107E70002B4682468B464046494600F043FC02466C
:107E80000B463046394600F03DFC75A3D3E900238C
:107E900000F0F0FD74A3D3E9002304460D464046EC
:107EA000494600F0E7FD02460B462046294600F011
:107EB0002BFC06460F4632463B465046594600F0DC
:107EC00023FC52465B4604460D4600F01BFC02466E
:107ED0000B463046394600F015FC2246804689465E
:107EE0002B462046294600F0C5FD61A3D3E90023B7
:107EF00006460F4600F0BEFD5FA3D3E9002300F065
:107F000001FC32463B4600F0B5FD5DA3D3E90023FA
:107F100000F0FAFB32463B4600F0ACFD5AA3D3E931
:107F2000002300F0EFFB32463B4600F0A3FD58A3D0
:107F3000D3E9002300F0E8FB32463B4600F09AFD0F
:107F400002460B462046294600F0DCFB06460F465B
:107F500032463B462046294600F08CFD02460B4641
:107F60003046394616461F4600224FF0804300F047
:107F7000C9FB02460B463046394600F0A5FE424694
:107F800006460F464B462046294600F073FD424602
:107F90004B4600F0B9FB02460B463046394600F02E
:107FA000B1FB22462B4600F0ADFB02460B460020FB
:107FB000414900F0A7FB029A0B461344B3F5801F1A
:107FC000C0F24381194653EC182B00F053FD41ECED
:107FD000100B2DE4BBF1000FFFF6A0AC9FED2E0BB4
:107FE00026E4DFF8DCC021F00043634540F3E7807E
:107FF000324B0B4403430AD122462B4600F082FB4E
:1080000032463B4600F0BCFF00283FF4F3AE24A309
:10801000D3E9002351EC180B00F02CFD20A3D3E989
:10802000002300F027FD41EC100B01E49FED1E7BC7
:10803000B0EE478AF0EE678A86E6BBF1000FCDDA34
:1080400007F1004300EE106A00EE903AFFF7F0BB34
:10805000FE822B654715973C00000000432EE63F4B
:10806000EF39FAFE422EE63F396CA80C615C20BE67
:10807000D0A4BE726937663EF16BD2C541BDBB3E2E
:108080002CDE25AF6A56113F93BDBE166CC1663F0C
:108090003E5555555555C53F0000000000000000F5
:1080A00059F3F8C21F6EA501000000000000F03F68
:1080B000FFFF8F40FFFF0F000000F03F00346F3FD5
:1080C000FFCB9040984585DB7D4B98453FF722AC30
:1080D00051EC100B7A4B002200F014FB68A3D3E99B
:1080E000002304460D4600F0C5FC67A3D3E9002336
:1080F00082468B462046294600F0BCFC714B41EC81
:10810000180B00222046294600F0B4FC02460B461C
:108110005FA1D1E9000100F0F5FA22462B4600F0FC
:10812000A9FC02460B460020674900F0EBFA224604
:10813000804689462B462046294600F09BFC024695
:108140000B464046494600F095FC53A3D3E9002373
:1081500000F090FC02460B4651EC180B00F0D2FAEE
:108160008046894642464B465046594600F0CCFA76
:10817000002052465B4604460D4691E522462B46BA
:108180002046294600F076FC41EC100BFFF750BB6F
:108190004B49002022462B4600F096FD41EC100B87
:1081A000FFF746BB002B44D1C1F114014AFA01F09C
:1081B00000FA01F151455AD00093FFF717BB424A2C
:1081C00093425BDCDDE900120291009146E634A3A4
:1081D000D3E9002351EC180B00F04CFC30A3D3E999
:1081E000002300F047FC41EC100BFFF721BB009B84
:1081F000012B7FF41DAB10EE901A10EE102A01F146
:10820000004343EC102BFFF713BB9FED277BB0EE31
:1082100047CAF0EE67CA9FED267BB0EE47DAF0EE74
:1082200067DA9FED257B4FF4802553EC172BFFF782
:10823000EBBB45EC104B009200F014F9009A002AB9
:108240007FF492AB0092FFF726BB41EC100B009835
:1082500000F0C2F951EC100BB5E600F00100C0F1DE
:1082600002010091002B3FF4C1AAFFF70DBB00F003
:108270000100C0F102030093FFF7B8BA1B15BBE57C
:10828000000000604715F73F44DF5DF80BAE543E39
:10829000555555555555D53FFE822B654715F73F2A
:1082A0009C7500883CE4377E0000004003B8E23F44
:1082B00006D0CF43EBFD4C3E000000000000F83F2D
:1082C0000000F03F0000D03F0000E03F2DE9F0410A
:1082D000634A55EC104BAA4300F09F80002D10EE2E
:1082E00010CA2B4654DD291563D0C3F31303A1F242
:1082F000FF37C90743F4801304D45B0003EBDC733E
:108300004FEA4C0C4FEADC72002602EB43037F106D
:108310004FEA4C0C4FF0160E34464FF40012A118E1
:10832000994202DC5B1A8C1816445B00BEF1010E08
:1083300003EBDC734FEA52024FEA4C0CEFD1754667
:1083400020204FF000420AE044D04FEADC710138AF
:1083500001EB43034FEA4C0C4FEA520243D0A342D5
:1083600002EB0E01F0DD002901EB020E0ADBA04654
:108370001B1B614588BF03F1FF33ACEB010C1544B7
:108380004446E2E7BEF1000FF1DB04F10108EFE73C
:1083900025F00042224338D0002D4ED129464FEA25
:1083A000DC22153913464FEA4C5C002AF7D0D6027E
:1083B00050D400205B00DD02044600F10100F9D535
:1083C0001A4663460CFA00FCC0F12000C340091BAA
:1083D00013438AE76145B8D8002901EB020ED1DBCF
:1083E00098460023C9E753EA0C0310D168087110BE
:1083F000F30701F17F5101F5001148BF40F0004043
:1084000001EB0753024643EC102BBDE8F0816A1CD8
:1084100016BF681C01364008E9E710EE102A10EE7E
:10842000100A2B46294600F025FB22462B4600F079
:108430006BF941EC100BBDE8F08110EE102A2046DC
:10844000294600F05FF902460B4600F03DFC41EC86
:10845000100BDAE7634620204FF0FF34B6E700BF89
:108460000000F07F51EC100B10EE102A21F00043B9
:1084700043EC102B704700BF82B08DED000B0198CC
:1084800040F0004000F58010C00F02B0704700BF00
:108490009FED010B704700BF000000000000F87F57
:1084A000F0B553EC102BC3F30A5CACF2FF31132987
:1084B00010EE100A83B01C464FEAD37E3ADC002946
:1084C00030DB424D45FA01FC03EA0C0515432DD083
:1084D00003EA5C0318434FEA5C0C0CD024EA0C0C52
:1084E0004FF48024132944FA01F10CBF4FF00040EF
:1084F00000204CEA0104364901EBCE0E2346DEE9AA
:10850000004502462946204600F0FEF8CDE900016C
:10851000DDE9000122462B4600F0F4F841EC100B97
:1085200003B0F0BD23F00041114324D143EC102BE4
:1085300003B0F0BD332908DDB1F5806FF6D11946DF
:1085400000F0E2F841EC100BF2E7ACF2134C4FF004
:10855000FF3121FA0CF10A42E8D010EA51024FEA49
:108560005103C8D020EA03034FF0804040FA0CFCCE
:1085700043EA0C00BFE7C3F313031843144A434212
:10858000034302EBCE0E1B0B620C03F400235204D8
:1085900043EA02073B46DEE9006710EE102A304648
:1085A000394600F0B1F8CDE9000132463B46DDE93D
:1085B000000100F0A7F804F0004421F00041024659
:1085C00041EA040343EC102B03B0F0BDFFFF0F00A2
:1085D000509B0B000000000038B553EC102BC3F388
:1085E0000A5104469C4689BB10EE101A23F0004C39
:1085F0005CEA010129D0194600223D4B3D4D10EEA9
:10860000100A00F037FAAC4202460B4616DB8C46E5
:10861000C1F30A513639214440F2FE70814221DC17
:10862000002947DC11F1350F34DA4CF250318C421D
:1086300018DC002B26A1D1E9000144DB24A3D3E9F7
:10864000002300F017FA41EC100B38BD40F2FF7028
:108650008142E0D110EE100A194600F055F841ECC5
:10866000100B38BD002B1CA1D1E9000107DB1AA3B8
:10867000D3E9002300F0FEF941EC100B38BD18A13E
:10868000D1E9000114A3D3E9002300F0F3F941EC90
:10869000100BF3E72CF0FF4C2CF4E00C36314CEAD5
:1086A0000153104619460022134B00F0E3F941EC48
:1086B000100B38BD2CF0FF4C2CF4E00C4CEA0153AD
:1086C00043EC102B38BD08A1D1E90001B6E700BF8B
:1086D00059F3F8C21F6EA5019C7500883CE4377EF3
:1086E0009C7500883CE437FE59F3F8C21F6EA581E3
:1086F00000005043B03CFFFF0000903C81F000417F
:1087000002E000BF83F0004330B54FEA41044FEA76
:10871000430594EA050F08BF90EA020F1FBF54EA11
:10872000000C55EA020C7FEA645C7FEA655C00F0AD
:10873000E2804FEA5454D4EB5555B8BF6D420CDD7E
:108740002C4480EA020281EA030382EA000083EA01
:10875000010180EA020281EA0303362D88BF30BDA1
:1087600011F0004F4FEA01314FF4801C4CEA1131F7
:1087700002D0404261EB410113F0004F4FEA033356
:108780004CEA133302D0524263EB430394EA050FE1
:1087900000F0A780A4F10104D5F1200E0DDB02FA50
:1087A0000EFC22FA05F2801841F1000103FA0EF2E4
:1087B000801843FA05F359410EE0A5F120050EF1AA
:1087C000200E012A03FA0EFC28BF4CF0020C43FADB
:1087D00005F3C01851EBE37101F0004507D54FF0E8
:1087E000000EDCF1000C7EEB00006EEB0101B1F538
:1087F000801F1BD3B1F5001F0CD349085FEA30007E
:108800004FEA3C0C04F101044FEA445212F5800F88
:1088100080F09A80BCF1004F08BF5FEA500C50F125
:10882000000041EB045141EA050130BD5FEA4C0C08
:10883000404141EB0101013C28BFB1F5801FE9D265
:1088400091F0000F04BF01460020B1FA81F308BF88
:108850002033A3F10B03B3F120020CDA0C3208DD54
:1088600002F1140CC2F10C0201FA0CF021FA02F12F
:108870000CE002F11402D8BFC2F1200C01FA02F19F
:1088800020FA0CFCDCBF41EA0C019040E41AA2BFC4
:1088900001EB0451294330BD6FEA04041F3C1CDA8C
:1088A0000C340EDC04F11404C4F1200220FA04F0AC
:1088B00001FA02F340EA030021FA04F345EA030156
:1088C00030BDC4F10C04C4F1200220FA02F001FA18
:1088D00004F340EA0300294630BD21FA04F029469A
:1088E00030BD94F0000F83F4801306BF81F4801133
:1088F0000134013D4EE77FEA645C18BF7FEA655CA6
:1089000029D094EA050F08BF90EA020F05D054EA77
:10891000000C04BF1946104630BD91EA030F1EBF7C
:108920000021002030BD5FEA545C05D14000494180
:1089300028BF41F0004130BD14F580043CBF01F573
:10894000801130BD01F0004545F0FE4141F4700159
:108950004FF0000030BD7FEA645C1ABF1946104634
:108960007FEA655C1CBF0B46024650EA013406BF35
:1089700052EA033591EA030F41F4002130BD00BFF4
:1089800090F0000F04BF0021704730B54FF48064B1
:1089900004F132044FF000054FF0000150E700BF32
:1089A00090F0000F04BF0021704730B54FF4806491
:1089B00004F1320410F0004548BF40424FF000017E
:1089C0003EE700BF42004FEAE2014FEA31014FEAC1
:1089D00002701FBF12F07F4393F07F4F81F0605110
:1089E000704732F07F4208BF704793F07F4F04BF5B
:1089F00041F40021704730B54FF4607401F0004538
:108A000021F000411CE700BF50EA010208BF704797
:108A100030B54FF000050AE050EA010208BF704788
:108A200030B511F0004502D5404261EB41014FF4F1
:108A3000806404F132045FEA915C3FF4D8AE4FF0F9
:108A400003025FEADC0C18BF03325FEADC0C18BFDC
:108A5000033202EBDC02C2F1200300FA03FC20FA2D
:108A600002F001FA03FE40EA0E0021FA02F114447A
:108A7000BDE600BF70B54FF0FF0C4CF4E06C1CEA93
:108A800011541DBF1CEA135594EA0C0F95EA0C0F04
:108A900000F0DEF82C4481EA030621EA4C5123EA77
:108AA0004C5350EA013518BF52EA033541F48011A6
:108AB00043F4801338D0A0FB02CE4FF00005E1FB59
:108AC00002E506F00042E0FB03E54FF00006E1FBA3
:108AD00003569CF0000F18BF4EF0010EA4F1FF04E6
:108AE000B6F5007F64F5407404D25FEA4E0E6D4126
:108AF00046EB060642EAC62141EA55514FEAC52037
:108B000040EA5E504FEACE2EB4F1FD0C88BFBCF5B2
:108B1000E06F1ED8BEF1004F08BF5FEA500E50F163
:108B2000000041EB045170BD06F0004646EA010129
:108B300040EA020081EA0301B4EB5C04C2BFD4EB5B
:108B40000C0541EA045170BD41F480114FF0000E54
:108B5000013C00F3AB8014F1360FDEBF002001F0C2
:108B6000004170BDC4F10004203C35DA0C341BDC3C
:108B700004F11404C4F1200500FA05F320FA04F00E
:108B800001FA05F240EA020001F0004221F0004142
:108B900010EBD37021FA04F642EB06015EEA430EB5
:108BA00008BF20EAD37070BDC4F10C04C4F12005E5
:108BB00000FA04F320FA05F001FA04F240EA020098
:108BC00001F0004110EBD37041F100015EEA430E69
:108BD00008BF20EAD37070BDC4F1200500FA05F289
:108BE0004EEA020E20FA04F301FA05F243EA020308
:108BF00021FA04F001F0004121FA04F220EA020017
:108C000000EBD3705EEA430E08BF20EAD37070BD5C
:108C100094F0000F0FD101F00046400041EB01013C
:108C200011F4801F08BF013CF7D041EA060195F01E
:108C3000000F18BF704703F00046520043EB0303D8
:108C400013F4801F08BF013DF7D043EA06037047C5
:108C500094EA0C0F0CEA135518BF95EA0C0F0CD0D0
:108C600050EA410618BF52EA4306D1D181EA030116
:108C700001F000414FF0000070BD50EA410606BF10
:108C80001046194652EA430619D094EA0C0F02D155
:108C900050EA013613D195EA0C0F05D152EA03369A
:108CA0001CBF104619460AD181EA030101F00041B8
:108CB00041F0FE4141F470014FF0000070BD41F001
:108CC000FE4141F4780170BD70B54FF0FF0C4CF4DB
:108CD000E06C1CEA11541DBF1CEA135594EA0C0FFA
:108CE00095EA0C0F00F0A7F8A4EB050481EA030E47
:108CF00052EA03354FEA013100F088804FEA03332E
:108D00004FF0805545EA131343EA12634FEA0222FB
:108D100045EA111545EA10654FEA00260EF00041BC
:108D20009D4208BF964244F1FD0404F5407402D20E
:108D30005B084FEA3202B61A65EB03055B084FEA9F
:108D400032024FF480104FF4002CB6EB020E75EB9C
:108D5000030E22BFB61A754640EA0C005B084FEAC4
:108D60003202B6EB020E75EB030E22BFB61A754641
:108D700040EA5C005B084FEA3202B6EB020E75EB8C
:108D8000030E22BFB61A754640EA9C005B084FEA04
:108D90003202B6EB020E75EB030E22BFB61A754611
:108DA00040EADC0055EA060E18D04FEA051545EA00
:108DB00016754FEA06164FEAC30343EA52734FEAA9
:108DC000C2025FEA1C1CC0D111F4801F0BD141EA22
:108DD00000014FF000004FF0004CB6E711F4801F87
:108DE00004BF01430020B4F1FD0C88BFBCF5E06F67
:108DF0003FF6AFAEB5EB030C04BFB6EB020C5FEA77
:108E0000500C50F1000041EB045170BD0EF0004ECB
:108E10004EEA113114EB5C04C2BFD4EB0C0541EAFD
:108E2000045170BD41F480114FF0000E013C90E6FA
:108E300045EA060E8DE60CEA135594EA0C0F08BFBE
:108E400095EA0C0F3FF43BAF94EA0C0F0AD150EABD
:108E500001347FF434AF95EA0C0F7FF425AF104650
:108E600019462CE795EA0C0F06D152EA03353FF478
:108E7000FDAE1046194622E750EA410618BF52EAF5
:108E800043067FF4C5AE50EA41047FF40DAF52EAC9
:108E900043057FF4EBAE12E74FF0FF3C06E000BF66
:108EA0004FF0010C02E000BF4FF0010C4DF804CD73
:108EB0004FEA410C7FEA6C5C4FEA430C18BF7FEA33
:108EC0006C5C1BD001B050EA410C0CBF52EA430C61
:108ED00091EA030F02BF90EA020F0020704710F1E1
:108EE000000F91EA030F58BF994208BF90422CBF70
:108EF000D8176FEAE37040F0010070474FEA410C69
:108F00007FEA6C5C02D150EA013C07D14FEA430C86
:108F10007FEA6C5CD6D152EA033CD3D05DF8040BF7
:108F2000704700BF8446104662468C461946634629
:108F300000E000BF01B5FFF7B7FF002848BF10F100
:108F4000000F01BD4DF808EDFFF7F4FF0CBF012045
:108F500000205DF808FB00BF4DF808EDFFF7EAFFC1
:108F600034BF012000205DF808FB00BF4DF808ED7C
:108F7000FFF7E0FF94BF012000205DF808FB00BF71
:108F80004DF808EDFFF7CEFF94BF012000205DF8FB
:108F900008FB00BF4DF808EDFFF7C4FF34BF012008
:108FA00000205DF808FB00BF4FEA410C7FEA6C5CD3
:108FB00002D150EA013C0AD14FEA430C7FEA6C5CD3
:108FC00002D152EA033C02D14FF0000070474FF04B
:108FD000010070474FEA410212F5001215D211D577
:108FE0006FF47873B3EB625212D94FEAC12343F0A6
:108FF000004343EA505311F0004F23FA02F018BF28
:10900000404270474FF00000704750EA013005D1F0
:1090100011F0004008BF6FF0004070474FF00000B3
:10902000704700BF4A0011D212F5001211D20DD5BF
:109030006FF47873B3EB62520ED44FEAC12343F05E
:10904000004343EA505323FA02F070474FF0000008
:10905000704750EA013002D14FF0FF3070474FF0B7
:10906000000070474FEA4102B2F1E04324BFB3F57C
:10907000001CDCF1FE5C0DD901F0004C4FEAC0028F
:109080004CEA5070B2F1004F40EB830008BF20F073
:109090000100704711F0804F21D113F13872BCBF2D
:1090A00001F00040704741F480114FEA5252C2F182
:1090B0001802C2F1200C10FA0CF320FA02F018BFCB
:1090C00040F001004FEAC1234FEAD32303FA0CFC1E
:1090D00040EA0C0023FA02F34FEA4303CCE77FEAAD
:1090E000625307D150EA01331EBF4FF0FE4040F4F7
:1090F0004000704701F0004040F0FE4040F40000A6
:10910000704700BF53B94AB9002908BF00281CBFE7
:109110004FF0FF314FF0FF3000F0C6B9ADF1080C51
:109120006DE904CE00F058F8DDF804E0DDE9022333
:1091300004B0704707EE900AF5EEC07AF1EE10FA2F
:1091400001D400F00BB8F1EE677A08B517EE900A7B
:1091500000F004F8404261EB410108BDD0B5FFF7D3
:1091600031FC0C4B002206460F46FFF783FCFFF74D
:1091700059FF0446FFF704FC074B0022FFF77AFC77
:1091800002460B4630463946FFF7BCFAFFF74AFF66
:109190002146D0BD0000F03D0000F041D0B50C4BA1
:1091A000002206460F46FFF765FCFFF73BFF04462B
:1091B000FFF7E6FB074B0022FFF75CFC02460B467D
:1091C00030463946FFF79EFAFFF72CFF2146D0BD07
:1091D0000000F03D0000F0412DE9F047089D0446F5
:1091E0008E46002B4DD18A42944669D9B2FA82F25A
:1091F00052B101FA02F3C2F1200120FA01F10CFA96
:1092000002FC41EA030E94404FEA1C48210CBEFBCD
:10921000F8F61FFA8CF708FB16E341EA034306FB56
:1092200007F199420AD91CEB030306F1FF3080F0E5
:109230001F81994240F21C81023E63445B1AA4B232
:10924000B3FBF8F008FB103344EA034400FB07F7D4
:10925000A7420AD91CEB040400F1FF3380F00A8115
:10926000A74240F207816444023840EA0640E41B0A
:1092700000261DB1D4400023C5E900433146BDE8B6
:10928000F0878B4209D9002D00F0EF800026C5E958
:10929000000130463146BDE8F087B3FA83F6002E70
:1092A0004AD18B4202D3824200F2F980841A61EBE8
:1092B000030301209E46002DE0D0C5E9004EDDE706
:1092C00002B9FFDEB2FA82F2002A40F09280A1EBEE
:1092D0000C014FEA1C471FFA8CFE0126200CB1FB43
:1092E000F7F307FB131140EA01410EFB03F088423C
:1092F00008D91CEB010103F1FF3802D2884200F2C9
:10930000CB804346091AA4B2B1FBF7F007FB10115A
:1093100044EA01440EFB00FEA64508D91CEB0404F8
:1093200000F1FF3102D2A64500F2BB800846A4EB53
:109330000E0440EA03409CE7C6F12007B34022FA3E
:1093400007FC4CEA030C20FA07F401FA06F31C436D
:10935000F9404FEA1C4900FA06F3B1FBF9F8200C7A
:109360001FFA8CFE09FB181140EA014108FB0EF0C0
:10937000884202FA06F20BD91CEB010108F1FF3A10
:1093800080F08880884240F28580A8F1020861441C
:10939000091AA4B2B1FBF9F009FB101144EA01412A
:1093A00000FB0EFE8E4508D91CEB010100F1FF34D5
:1093B0006CD28E456AD90238614440EA0840A0FB6D
:1093C0000294A1EB0E01A142C846A64656D353D043
:1093D0005DB1B3EB080261EB0E0101FA07F722FA67
:1093E00006F3F1401F43C5E9007100263146BDE890
:1093F000F087C2F12003D8400CFA02FC21FA03F3F3
:10940000914001434FEA1C471FFA8CFEB3FBF7F073
:1094100007FB10360B0C43EA064300FB0EF69E4298
:1094200004FA02F408D91CEB030300F1FF382FD231
:109430009E422DD9023863449B1B89B2B3FBF7F6D9
:1094400007FB163341EA034106FB0EF38B4208D9B2
:109450001CEB010106F1FF3816D28B4214D9023EF3
:109460006144C91A46EA004638E72E46284605E711
:109470000646E3E61846F8E64B45A9D2B9EB0208E2
:1094800064EB0C0E0138A3E74646EAE7204694E772
:109490004046D1E7D0467BE7023B614432E73046A5
:1094A00009E76444023842E7704700BF10B50C4634
:1094B00041690369826986B001F26C7104910168A7
:1094C00003914168029181680191C1680091074947
:1094D00003EB43030B44064902EB42020A442046D5
:1094E0000449FCF77DFB204606B010BD959B0B00A0
:1094F000809B0B00609B0B00002301461A46184618
:1095000000F072B80A44914200F1FF3300D1704775
:1095100010B511F8014B03F8014F9142F9D110BD7C
:1095200002440346934200D1704703F8011BF9E758
:1095300038B5104B1D68AB6B0446B3B91820FCF767
:1095400037FB0246A86320B90B4B0C484221FCF7BD
:1095500067FB0B490B4BC0E900130B4B83600B23DC
:10956000838100210120C2E90401AB6B00221C6150
:109570005A6138BDC4E40320B99B0B00D09B0B009B
:109580000E33CDAB34126DE6ECDE0500034611F868
:10959000012B03F8012B002AF9D17047024B014639
:1095A000186800F003B800BFC4E4032037B50446D0
:1095B00008460D4600F00FF8421C11462046019265
:1095C000FCF71EFB044618B1019A2946FFF79AFFE3
:1095D000204603B030BD034613F8012B002AFBD10F
:1095E000181A0138704700002DE9F843DFF8B880F9
:1095F0000646D8F800001F460D46914600F056F882
:10960000254B1C6834B9254C1C60254B13B11B68D5
:10961000C4F8883063681F2B07DDD8F8000000F01D
:1096200047F84FF0FF30BDE8F8834EB3D4F8880018
:1096300088B91C4B23B9D8F8000000F038F8F0E7DF
:109640004FF48470FCF7B4FA0028F4D00023C0E98A
:109650004033C4F88800636840F8239001229A40A0
:1096600000EB8301D0F800311343C0F80031022E23
:10967000C1F8807002BFD0F804311343C0F8043140
:109680006368D8F800005A1C0233626044F8235023
:1096900000F00EF80020C6E7ECE7032060E70320A7
:1096A00000000000B15B0B0028E503207047704705
:1096B0007047000021400B005D400B0085400B000F
:1096C00089400B00000000002054656D703A002CAA
:1096D000002044657074683A002050726573737599
:1096E00072653A0020414C533A200020446973735C
:1096F0006F6C76656420536F6C696473202870709A
:109700006D293A200020494C533A20005077722EA0
:10971000537570706C793A00436865636B73756D4F
:109720003A2000496E697469616C697A696E6720D4
:10973000506F77657220436F6E666967004465708D
:1097400074682C54656D70657261747572652C2037
:1097500054757262696469747920616E642054443E
:109760005320446174612041637175697369746940
:109770006F6E0056454D4C373730302053656E7351
:109780006F72206E6F7420666F756E642C20686136
:109790006E67696E6720686572652E2E2E005365B0
:1097A0006E736F7220666F756E64004761696E3A02
:1097B000200031003200312F3400312F3800496E43
:1097C000746567726174696F6E2054696D652028D5
:1097D0006D73293A200032350035300031303000C9
:1097E0003230300034303000383030002A2A2A2A13
:1097F0002A2A2A496E697469616C20414C533A2ABD
:109800002A2A2A2A2A2A20004572726F723A204C8C
:1098100050533238444657206E6F7420636F6E6E1B
:1098200065637465642C20636865636B2077697277
:10983000696E6720616E64204932432061646472FE
:10984000657373210044657074682053656E736F8F
:109850007220436F6E6E65637465642E2E2E004910
:109860006E697469616C20616972207072657373CE
:109870007572652072656164696E673A20002A2AF4
:109880002A2A2A2A2A2A2A2A2A2A2A2A2A2A2A2A38
:109890002A2A2A2A2A2A2A2A2A0053656E64696EED
:1098A0006720576562686F6F6B2E2E2E007B00223B
:1098B0007661723222002276617233220022766152
:1098C00072342200227661723522007D0076617248
:1098D000732D7465737400537472696E6720436FDF
:1098E0006E63616E74656E6174696F6E733A005376
:1098F00065727665722054696D65204164646564A3
:109900000054656D70657261747572653A2000412E
:10991000746D2E2050726573737572653A2000491C
:109920006E70757420566F6C746167653A200044E0
:10993000657074683A200054445320506C6163652C
:10994000686F6C6465723A20005077722E537570A0
:10995000706C7920566F6C746167653A2000506FA7
:10996000776572696E67206F66662C20676F696E17
:109970006720746F20736C6565702E2E2E000000BA
:109980000000000000000000AF5C0B00A55C0B00B5
:109990009B5C0B00915C0B00855C0B00795C0B0001
:1099A000F9710B0001720B006D5C0B00655C0B0024
:1099B0005B5C0B00515C0B0031720B0077697269C4
:1099C0006E670053797374656D20736C65657020E4
:1099D000636F6E66696775726174696F6E20697313
:1099E00020696E76616C69642E006E616E00696E2E
:1099F00066006F7666006170700025592D256D2D0B
:109A000025645425483A254D3A2553257A0061733B
:109A10006374696D65000000000000000000000034
:109A2000D9670B00DF670B001D680B00ED670B00AB
:109A3000DB670B000000000000000000196D0B0048
:109A4000096D0B000B6D0B00000000000000000012
:109A5000FF6D0B00676E0B003D6E0B0035620B0057
:109A60002F6E0B00016E0B00116E0B00616E0B0070
:109A7000216E0B00F96D0B000000000000000000DB
:109A80006B6F0B00616F0B00576F0B000D6F0B00BE
:109A90004B6F0B003F6F0B00F9710B0001720B0055
:109AA000336F0B002B6F0B00216F0B00176F0B0038
:109AB00031720B000000000000000000A56F0B00D9
:109AC00011700B00E96F0B0035620B00B96F0B00D2
:109AD000D56F0B00C76F0B00E36F0B00A76F0B0078
